:100000000C947C020C9499020C9499020C94990221
:100010000C9499020C9499020C9499020C949902F4
:100020000C9499020C9499020C9489170C94C4179F
:100030000C9499020C9499020C9499020C949902D4
:100040000C9499020C9499020C9499020C949902C4
:100050000C9451040C9411040C9499020C94990280
:100060000C9499020C9499020C9499020C949902A4
:100070000C9499020C9499020C9499020C94990294
:100080000C9499020C9499020C9499020C94990284
:100090000C9499020C9499020C9499020C94990274
:1000A0000C9499020C9499020C9499021E171B1738
:1000B0001817151712170F170C170917061703171C
:1000C0000017FD16FA16F716F416F116EE16EB16D3
:1000D000E816E516E216DF16DC16D916D616D31684
:1000E000D016CD16CA16C716C416C116BE16BB1634
:1000F000B816B516B216AF16AC16A916A616A316E4
:10010000A0169D169A169716941691168E168B1693
:100110008816851682167F167C1679167616731643
:1001200070166D166A166716641661165E1605A8B7
:100130004CCDB2D44EB93836A9020C50B99186884C
:10014000083CA6AAAA2ABE000000803F00010000C9
:100150008001120002000092014300030000D5015B
:100160000401030904D9011402030904EF01160371
:1001700003090407020C0001C11201803601813617
:100180001201000202000010C0167A0400010102F0
:10019000030109024300020100C03209040000010A
:1001A00002020100052400100105240101010424BC
:1001B0000206052406000107058203100040090419
:1001C0000100020A000000070503024000000705C5
:1001D000840240000004030904140359006F0075F1
:1001E00000720020004E0061006D006500000016E6
:1001F000035500530042002000530065007200695F
:100200000061006C0000000C033100320033003448
:1002100000350000006E616E00696E66000000002F
:10022000000000005F00000007000700147F147F3B
:1002300014242A7F2A122313086462364955225057
:100240000005030000001C2241000041221C001494
:10025000083E081408083E0808005030000008084E
:10026000080808006060000020100804023E5149A0
:10027000453E00427F400042615149462141454B85
:10028000311814127F1027454545393C4A494930F9
:1002900001710905033649494936064949291E00B5
:1002A00036360000005636000008142241001414AF
:1002B000141414004122140802015109063249792C
:1002C000413E7E1111117E7F494949363E414141EF
:1002D000227F4141221C7F494949417F0909090187
:1002E0003E4149497A7F0808087F00417F4100204C
:1002F00040413F017F081422417F404040407F023F
:100300000C027F7F0408107F3E4141413E7F090976
:1003100009063E4151215E7F09192946464949494E
:100320003101017F01013F4040403F1F2040201F1D
:100330003F4038403F6314081463070870080761A2
:1003400051494543007F414100020408102000410B
:10035000417F00040201020440404040400001028D
:10036000040020545454787F48444438384444446A
:1003700020384444487F3854545418087E090102F8
:100380000C5252523E7F0804047800447D40002005
:1003900040443D007F1028440000417F40007C0421
:1003A0001804787C0804047838444444387C1414D5
:1003B0001408081414187C7C080404084854545485
:1003C00020043F4440203C4040207C1C2040201C16
:1003D0003C4030403C44281028440C5050503C4491
:1003E00064544C44000836410000007F0000004186
:1003F0003608001008081008784641467800407A10
:1004000010F35A00A0724E18090010A5D4E800009D
:10041000E87648170000E40B54020000CA9A3B003B
:100420000000E1F505000080969800000040420FB2
:10043000000000A08601000000102700000000E876
:1004400003000000006400000000000A000000003B
:10045000000100000000002C76D888DC674F0823DC
:10046000DFC1DFAE59E1B1B796E5E3E453C63AE642
:1004700051997696E8E6C28426EB898C9B62ED4022
:100480007C6FFCEFBC9C9F40F2BAA56FA5F4900571
:100490005A2AF75C936B6CF9676DC11BFCE0E40DA5
:1004A00047FEF520E6B500D0ED902E030094357799
:1004B000050080841E080000204E0A000000C80CC1
:1004C000333333330F986E12831141EF8D2114892A
:1004D0003BE65516CFFEE6DB18D1844B381BF77C84
:1004E0001D901DA4BBE424203284725E228100C9C9
:1004F000F124ECA1E53D270011241FBECFEFDAE087
:10050000DEBFCDBF13E0A0E0B1E0ECE0FCE402C050
:1005100005900D92AA32B107D9F715E0AAE2B3E02F
:1005200001C01D92AB3CB107E1F70E94E5140C94A9
:1005300004260C94000020912E0330912F0340914B
:10054000300350913103609184007091850080E008
:1005500090E0A90133272227620F731F841F951F84
:100560000E94032120E030E040E854E40E9445224C
:1005700020E034E244EF5AE40E946A200895EF92AA
:10058000FF920F931F93E0907C03F0907D03009106
:100590007E0310917F0360918003709181038091AD
:1005A0008203909183030E94D2206950704066328A
:1005B000710568F4C801B7010E94D2206335710546
:1005C00034F420E0161617061CF421E001C020E0E8
:1005D000822F1F910F91FF90EF900895EF92FF925D
:1005E0000F931F93E0905403F0905503009156032E
:1005F00010915703609158037091590380915A03E9
:1006000090915B030E94D2206A5070406032710565
:1006100068F4C801B7010E94D2206D34710534F42A
:1006200080E0623071051CF081E001C080E01F9124
:100630000F91FF90EF900895EF92FF920F931F9309
:10064000E090A803F090A9030091AA031091AB03D6
:100650006091AC037091AD038091AE039091AF03B4
:100660000E94D2206A5070406D31710568F4C80153
:10067000B7010E94D2206B34710534F480E06230FF
:1006800071051CF081E001C080E01F910F91FF9087
:10069000EF90089541E050E002C0440F551F8A9545
:1006A000E2F72091380330913903B9018FB12F5F00
:1006B0003F4F90E084239523892BB9F7609338034B
:1006C0007093390308956F927F928F929F92AF92A9
:1006D000BF92CF92DF92EF92FF920F931F935C0134
:1006E0006A017B0138014901FC01608171818281CD
:1006F0009381A70196010E94EC1FF501608371832D
:10070000828393836481758186819781A40193019B
:100710000E94EC1FF50164837583868397831F9184
:100720000F91FF90EF90DF90CF90BF90AF909F9090
:100730008F907F906F9008950F931F93FC014083DB
:1007400051836283738304831583268337831F91C8
:100750000F910895FC012081318142815381B901BB
:10076000CA010895FC012481358146815781B90170
:10077000CA010895FC012085318542855385B90160
:10078000CA010895FC012485358546855785B90140
:10079000CA010895FC01808990E00895FC018189D7
:1007A00090E008950F931F93FC0140875187628763
:1007B000738704871587268737871F910F910895C0
:1007C0000F931F938C01FC01608171818281938161
:1007D00020853185428553850E94EC1FF801608396
:1007E0007183828393836481758186819781248557
:1007F0003585468557850E94EC1FF8016483758313
:10080000868397831F910F910895FC01128A0895A2
:1008100021E0FC01228B0895FC018289811181E095
:1008200008951F920F920FB60F9211248F939F93EA
:10083000AF93BF938091320390913303A09134031F
:10084000B09135030196A11DB11D809332039093A1
:100850003303A0933403B093350380916B03882353
:10086000B9F48091BD03882399F080912A03909177
:100870002B03A0912C03B0912D030196A11DB11D56
:1008800080932A0390932B03A0932C03B0932D0302
:10089000BF91AF919F918F910F900FBE0F901F90BE
:1008A00018951F920F920FB60F9211248F939F935A
:1008B000AF93BF9380912E0390912F03A0913003AB
:1008C000B09131030196A11DB11D80932E03909329
:1008D0002F03A0933003B0933103BF91AF919F9149
:1008E0008F910F900FBE0F901F9018952F923F92EF
:1008F0004F925F926F927F928F929F92AF92BF9230
:10090000CF92DF92EF92FF920F931F93DF93CF93DB
:1009100000D000D000D0CDB7DEB79E838D83CB0151
:10092000BA012BED3FE049E450E40E94452220E06B
:1009300030E044E353E40E946A207B018C01C8014B
:100940000E94C8225B016C01B701C8010E946720A8
:1009500069837A838B839C83ED81FE8160847184BB
:10096000828493842484358446845784A40193012B
:100970000E9445227B018C01C601B501A2019101B3
:100980000E9445229B01AC01C801B7010E94EC1FE7
:10099000ED81FE816087718782879387D7FAD09433
:1009A000D7F8D094C601B501A40193010E94452255
:1009B0007B018C0169817A818B819C81A2019101EB
:1009C0000E9445229B01AC01C801B7010E94EC1FA7
:1009D000ED81FE81648775878687978726960FB697
:1009E000F894DEBF0FBECDBFCF91DF911F910F9165
:1009F000FF90EF90DF90CF90BF90AF909F908F903F
:100A00007F906F905F904F903F902F9008958FE46C
:100A10000E94E41E80B38F7980BB84B18C7784B947
:100A20008AB18C7F8AB984B5826084BD85B58560C2
:100A300085BD8EE487BDEEE6F0E080818260808334
:100A4000E1E8F0E0808185608083EFE6F0E080817E
:100A5000816080830E943F1578940895CF93DF933F
:100A6000EC0103C00E94AE15219688818823D1F73E
:100A70008DE00E94AE158AE00E94AE15DF91CF9105
:100A800008950F931F93CF93DF93EC010E949B0275
:100A90002DB73EB7285030400FB6F8943EBF0FBE7A
:100AA0002DBFEDB7FEB731960CE613E0ADB7BEB77C
:100AB00012961C930E93119720E031E0338322832A
:100AC00064837583868397830E9426252DB73EB75E
:100AD000285F3F4F0FB6F8943EBF0FBE2DBFC80131
:100AE00060E170E00E94101603C00E94AE152196CE
:100AF00088818823D1F78DE00E94AE158AE00E949C
:100B0000AE15DF91CF911F910F9108958FE160E0B5
:100B100040E151E00E948B1E8FE168E045E151E029
:100B20000E948B1E82E068E14BE151E00E948B1E27
:100B300084E060E24CE251E00E948B1E089584E064
:100B400060E04DE351E00E948B1E84E068E04BE4DE
:100B500051E00E948B1E84E060E14AE551E00E9472
:100B60008B1E84E068E14BE151E00E948B1E84E023
:100B700060E243E651E00E948B1E08950F931F939D
:100B8000DF93CF93CDB7DEB729970FB6F894DEBFCA
:100B90000FBECDBF80E068E040E02FE20E94F11C74
:100BA00080E06FE243E52FE20E94F11C83E56FE2F3
:100BB00043E528E00E94F11C83E568E040E028E07E
:100BC0000E94F11C00D000D000D0EDB7FEB73196E6
:100BD0008E010F5F1F4FADB7BEB712961C930E93D9
:100BE00011978FE691E0938382838091A603909181
:100BF000A703958384830E9426258DB79EB706960A
:100C00000FB6F8949EBF0FBE8DBF80E060E0A801D4
:100C10000E948B1E00D000D000D0EDB7FEB73196F9
:100C20008E010D5F1F4FADB7BEB712961C930E938A
:100C3000119784E791E09383828380916903909177
:100C40006A03958384830E9426258DB79EB70696F6
:100C50000FB6F8949EBF0FBE8DBF89E160E0A8017A
:100C60000E948B1EADB7BEB71C970FB6F894BEBFDF
:100C70000FBEADBFEDB7FEB731968E010B5F1F4FB4
:100C800012961C930E93119789E791E093838283C8
:100C900080914003909141039583848380913E032A
:100CA00090913F039783868380913C0390913D030D
:100CB0009187808780913A0390913B039387828745
:100CC0000E9426258DB79EB70C960FB6F8949EBF4E
:100CD0000FBE8DBF82E360E0A8010E948B1E2996A3
:100CE0000FB6F894DEBF0FBECDBFCF91DF911F913D
:100CF0000F91089580913803909139030E94012447
:100D00000E94FC236FE270E00E944D239C01893019
:100D100091051CF424E130E005C08732910514F000
:100D200026E230E0C901089580913803909139039B
:100D30000E9401240E94FC236BE470E00E944D237A
:100D40009C018435910514F02BE430E0C90108952D
:100D5000AF92BF92CF92DF92EF92FF920F931F93C9
:100D60008091380390913903880F991F909339032C
:100D70008093380384E593E00E9494065C0184E547
:100D800093E00E947A06182F092FC090C203D090DA
:100D9000C303E090C403F090C5036091BE0370915B
:100DA000BF038091C0039091C1030E94D220C5016E
:100DB000861B970B2FEF8A3F920714F007978CF052
:100DC000212F302FC9018C01C701B6010E94D2200A
:100DD000C801861B970B2FEF873F920764F00A9795
:100DE00054F484E593E00E9494065C0184E593E06A
:100DF0000E947A068C01C8010A97809790F48DE4CE
:100E0000A816B10470F422E0A216B10450F084E5F3
:100E100093E00E9494065C0184E593E00E947A06C8
:100E20008C01B50180E090E00E9403216B017C0100
:100E3000B80180E090E00E9403218B019C0184E5D1
:100E400093E0B701A601B5E0EB2EA5E0CA2EF9E0CC
:100E5000AF2EF3E0BF2E0E94321F1F910F91FF9023
:100E6000EF90DF90CF90BF90AF9008954F925F9238
:100E70006F927F928F929F92AF92BF92CF92DF92AA
:100E8000EF92FF920F931F93CF93DF935090CF0376
:100E90004090CE036091BE037091BF038091C00368
:100EA0009091C1030E94D220EB016091C203709126
:100EB000C3038091C4039091C5030E94D2204B01CB
:100EC0006090E0027090E10224E06216710471F516
:100ED0002397BE01882777FD8095982F23960E943F
:100EE00005216B017C0182E090E0880E991EB4011F
:100EF000882777FD8095982F2EEF3FEF820E931E67
:100F00000E9405218B019C0181E993E0B701A601B4
:100F1000B4E0EB2ECC24C394A3E0AA2EA3E0BA2E17
:100F20000E94321F7092E1026092E0028091E00222
:100F30009091E102019751F52296BE01882777FD35
:100F40008095982F22970E9405216B017C018EEFDE
:100F50009FEF880E991EB401882777FD8095982F02
:100F600022E030E0820E931E0E9405218B019C013D
:100F700081E993E0B701A601EE24E394F4E0CF2EDB
:100F8000EFEFAE2EE2E0BE2E0E94321F8091E00213
:100F90009091E102039731F52296BE01882777FDF3
:100FA0008095982F22970E9405216B017C01B40146
:100FB000650D711D62507040882777FD8095982FD0
:100FC0000E9405218B019C0181E993E0B701A601F4
:100FD000EE24E394B4E0CB2EAFEFAA2EA2E0BA2E1B
:100FE0000E94321F8091E0029091E102029739F550
:100FF000C40DD11D2197BE01882777FD8095982FBC
:101000000E9405216B017C0182E090E0880E991E10
:10101000B401882777FD8095982F0E9405218B01C8
:101020009C0181E993E0B701A601F4E0EF2ECC2406
:10103000C394E3E0AE2EE3E0BE2E0E94321FDF91A8
:10104000CF911F910F91FF90EF90DF90CF90BF90C5
:10105000AF909F908F907F906F905F904F9008958A
:10106000AF92BF92CF92DF92EF92FF920F931F93B6
:101070008091380390913903880F991F9093390319
:10108000809338038EEB93E00E949406182F092F6B
:101090008EEB93E00E947A065C01C0905403D090DE
:1010A0005503E0905603F0905703609158037091F8
:1010B000590380915A0390915B030E94D2206A19D0
:1010C0007B098FEF673F78071CF06A3071058CF061
:1010D000212F302FC9018C01C701B6010E94D220F7
:1010E000601B710B8FEF6A3F78076CF067307105FA
:1010F00054F48EEB93E00E9494068C018EEB93E007
:101100000E947A065C01B80180E090E00E94032111
:101110006B017C01B50180E090E00E9403218B010E
:101120009C018EEB93E0B701A601A5E0EA2EF4E066
:10113000CF2EE6EEAE2EE2E0BE2E0E94321F0E94BF
:1011400036071F910F91FF90EF90DF90CF90BF90E7
:10115000AF9008952F923F924F925F926F927F923D
:101160008F929F92AF92BF92CF92DF92EF92FF92B7
:101170000F931F936091BE037091BF038091C003D2
:101180009091C1030E94D2207B018C016091A80341
:101190007091A9038091AA039091AB030E94D22081
:1011A000E61AF70AB701882777FD8095982F0E94E5
:1011B00005213B014C016091C2037091C3038091F2
:1011C000C4039091C5030E94D2207B018C016091E1
:1011D000AC037091AD038091AE039091AF030E9478
:1011E000D220E61AF70AB701882777FD8095982F55
:1011F0000E9405217B018C01C401B301A40193016C
:101200000E9445225B016C01C801B701A80197014A
:101210000E9445229B01AC01C601B5010E94EC1F52
:101220000E94D2221B012C01C401B3012DEC3CEC25
:101230004CEC5EE30E9445225B016C01C801B701E2
:101240002DEC3CEC4CEC5EE30E9445227B018C01D2
:10125000C601B501A20191010E946A206093B0030A
:101260007093B1038093B2039093B303C801B701A5
:10127000A20191010E946A206093B4037093B503A8
:101280008093B6039093B7031F910F91FF90EF9057
:10129000DF90CF90BF90AF909F908F907F906F9096
:1012A0005F904F903F902F9008952F923F924F92D2
:1012B0005F926F927F928F929F92AF92BF92CF92E6
:1012C000DF92EF92FF920F931F936091BE03709194
:1012D000BF038091C0039091C1030E94D2207B0183
:1012E0008C01609154037091550380915603909145
:1012F00057030E94D220E61AF70AB701882777FD24
:101300008095982F0E9405213B014C016091C203FA
:101310007091C3038091C4039091C5030E94D220B1
:101320007B018C01609158037091590380915A039D
:1013300090915B030E94D220E61AF70AB701882732
:1013400077FD8095982F0E9405217B018C01C401B7
:10135000B301A40193010E9445225B016C01C80105
:10136000B701A80197010E9445229B01AC01C6016B
:10137000B5010E94EC1F0E94D2221B012C01C40166
:10138000B30123E333E343E35FE30E9445225B01C0
:101390006C01C801B70123E333E343E35FE30E9439
:1013A00045227B018C01C601B501A20191010E9479
:1013B0006A2060935C0370935D0380935E03909357
:1013C0005F03C801B701A20191010E946A206093E6
:1013D00060037093610380936203909363031F9192
:1013E0000F91FF90EF90DF90CF90BF90AF909F90C4
:1013F0008F907F906F905F904F903F902F900895C7
:101400008F929F92AF92BF92CF92DF92EF92FF9214
:101410000F931F93CF93DF93E0909103F09092038B
:101420000091930310919403A0909503B0909603BC
:10143000C0909703D09098030E948015882319F4D8
:1014400020E030E003C00E945B159C018FB18295C3
:101450008695877080FD04C02032310509F02CC1CB
:101460008091BD03882309F427C1C801B7010E94F8
:10147000D2204B01C601B5010E94D220EB01809120
:10148000E0029091E102029709F03FC080918E0343
:101490008823D9F5B401882777FD8095982F0E947D
:1014A00005216B017C01BE01882777FD8095982F6F
:1014B0000E9405218B019C018CE793E0B701A601F6
:1014C000B2E0EB2EA2E0CA2EF7E0AF2EF3E0BF2E83
:1014D0000E94321F8AE999E9A9E9BFE38093840356
:1014E00090938503A0938603B093870380E090E0F8
:1014F000A0E0B0E08093880390938903A0938A03CF
:10150000B0938B0381E080938E038091E0029091F1
:10151000E102019709F041C080918E038823E9F52B
:10152000B401882777FD8095982F0E9405216B01D3
:101530007C012196BE01882777FD8095982F219701
:101540000E9405218B019C018CE793E0B701A60165
:10155000E2E0EE2EB2E0CB2EA7E0AA2EA3E0BA2E58
:101560000E94321F80E090E0A0E0B0E0809384030E
:1015700090938503A0938603B09387038AE999E942
:10158000A9E9BFEB8093880390938903A0938A0312
:10159000B0938B0381E080938E038091E002909161
:1015A000E102039709F03FC080918E038823D9F5AB
:1015B000B401882777FD8095982F0E9405216B0143
:1015C0007C01BE01882777FD8095982F0E94052118
:1015D0008B019C018CE793E0B701A601F2E0EF2EAE
:1015E000E2E0CE2EB7E0AB2EB3E0BB2E0E94321F5E
:1015F00080E090E0A0E0B0E08093840390938503C6
:10160000A0938603B09387038AE999E9A9E9BFE328
:101610008093880390938903A0938A03B0938B03EC
:1016200081E080938E038091E0029091E102049723
:1016300009F042C080918E038823F1F50894811C43
:10164000911CB401882777FD8095982F0E94052171
:101650006B017C01BE01882777FD8095982F0E9441
:1016600005218B019C018CE793E0B701A601A2E064
:10167000EA2EF2E0CF2EE7E0AE2EE3E0BE2E0E948F
:10168000321F8AE999E9A9E9BFEB8093840390931B
:101690008503A0938603B093870380E090E0A0E0E9
:1016A000B0E08093880390938903A0938A03B0935A
:1016B0008B0381E080938E038CE793E00E945A1F96
:1016C00060917C0370917D0380917E0390917F03F4
:1016D00020918403309185034091860350918703C4
:1016E0000E94EC1F60937C0370937D0380937E03C4
:1016F00090937F03609180037091810380918203B6
:1017000090918303209188033091890340918A034B
:1017100050918B030E94EC1F6093800370938103B0
:101720008093820390938303DF91CF911F910F9158
:10173000FF90EF90DF90CF90BF90AF909F908F90F1
:1017400008956F927F928F929F92AF92BF92CF92A5
:10175000DF92EF92FF920F931F93CF93DF937090DE
:10176000CF036090CE036091BE037091BF03809160
:10177000C0039091C1030E94D2208B016091C203EB
:101780007091C3038091C4039091C5030E94D2203D
:101790007B018091A203A82EBB248091A103882EF7
:1017A00099240E948015882319F4CC24DD2403C0D9
:1017B0000E945B156C0183B1869580FD05C021E612
:1017C000C216D10409F070C0081519050CF46CC0DC
:1017D00083E093E09093A5038093A40384E0809337
:1017E000A10381E08093A20304501040B801882730
:1017F00077FD8095982F0C5F1F4F0E940521609305
:10180000910370939203809393039093940382E0E7
:1018100090E0E80EF91EB701882777FD8095982F94
:101820002EEF3FEFE20EF31E0E9405216093950319
:101830007093960380939703909398036091BE03EF
:101840007091BF038091C0039091C10320E030E00C
:1018500040E85FEB0E94EC1F6093BE037093BF03F0
:101860008093C0039093C1036091C2037091C3033E
:101870008091C4039091C50320E030E040E050E047
:101880000E94EC1F6093C2037093C3038093C40350
:101890009093C50381E993E00E945A1F84E090E091
:1018A0009093E1028093E00289B1869580FD05C0A6
:1018B00037E7C316D10409F072C0C50107968E152B
:1018C0009F050CF06CC08FEF92E09093A50380937E
:1018D000A4030E5F1F4FB801882777FD8095982FCE
:1018E000025010400E94052160939103709392036F
:1018F00080939303909394038CEF9FEFE80EF91E6F
:10190000B701882777FD8095982F24E030E0E20E1C
:10191000F31E0E94052160939503709396038093B4
:1019200097039093980381E08093A10384E08093D0
:10193000A2036091BE037091BF038091C003909198
:10194000C10320E030E040E050E00E94EC1F6093D3
:10195000BE037093BF038093C0039093C103609153
:10196000C2037091C3038091C4039091C50320E02A
:1019700030E040E85FEB0E94EC1F6093C20370937D
:10198000C3038093C4039093C50381E090E09093D8
:10199000E1028093E00281E993E00E945A1F1F99BF
:1019A00005C033E7C316D10409F073C0C72DD0E0DA
:1019B0008FE290E08A199B098C1B9D0B01968E1576
:1019C0009F050CF466C08FEF92E09093A50380937F
:1019D000A4030E5F1F4FB801882777FD8095982FCD
:1019E000025010400E94052160939103709392036E
:1019F0008093930390939403CE0DDF1DBE0188273F
:101A000077FD8095982F0E94052160939503709330
:101A10009603809397039093980381E08093A103AA
:101A200084E08093A2036091BE037091BF03809114
:101A3000C0039091C10320E030E040E050E00E94FC
:101A4000EC1F6093BE037093BF038093C003909319
:101A5000C1036091C2037091C3038091C40390914C
:101A6000C50320E030E040E85FE30E94EC1F609394
:101A7000C2037093C3038093C4039093C50383E0B0
:101A800090E09093E1028093E00281E993E00E946C
:101A90005A1F489905C084E6C816D10409F073C0DE
:101AA000262D30E083E590E088199909821B930B7D
:101AB0000196801791070CF466C083E093E0909341
:101AC000A5038093A403200F311FB901882777FD58
:101AD0008095982F0E940521609391037093920343
:101AE000809393039093940384E08093A10381E017
:101AF0008093A20322E030E0E20EF31EB7018827B4
:101B000077FD8095982F0E9405216093950370932F
:101B1000960380939703909398036091BE0370910E
:101B2000BF038091C0039091C10320E030E040E802
:101B30005FE30E94EC1F6093BE037093BF0380932A
:101B4000C0039093C1036091C2037091C30380915D
:101B5000C4039091C50320E030E040E050E00E94D3
:101B6000EC1F6093C2037093C3038093C4039093EC
:101B7000C50381E993E00E945A1F82E090E09093B0
:101B8000E1028093E00281E993E00E945A1F8EEB0C
:101B900093E00E945A1FDF91CF911F910F91FF9008
:101BA000EF90DF90CF90BF90AF909F908F907F90FD
:101BB0006F9008955F926F927F928F929F92AF92F3
:101BC000BF92CF92DF92EF92FF920F931F93CF932A
:101BD000DF937C018B01FC01648175818681978193
:101BE0000E94A8220E94D220EB01F7016080718040
:101BF000828093805088F801648175818681978105
:101C00000E94A8220E94D220F8012189A080B180E0
:101C1000C280D3800089F7018189AE01480F511D30
:101C2000641775071CF5620F711DC617D707F4F40A
:101C3000C401B3010E94A8220E94D220EB01C60178
:101C4000B5010E94A8220E94D220CE01850D911DCF
:101C5000681779075CF490E0600F711DC617D7070D
:101C60000CF091E081E09827892F02C080E090E09D
:101C7000DF91CF911F910F91FF90EF90DF90CF9068
:101C8000BF90AF909F908F907F906F905F900895DE
:101C9000AF92BF92CF92DF92EF92FF920F931F937A
:101CA000DF93CF930F92CDB7DEB703E010E07E0154
:101CB0000894E11CF11C93E8A92E91E0B92E88EC60
:101CC000C82ED12C00D000D000D0EDB7FEB7319691
:101CD000ADB7BEB71296FC92EE921197B382A28274
:101CE000158304830E9426258DB79EB706960FB6EE
:101CF000F8949EBF0FBE8DBF0E94B61C8AE262E1BF
:101D0000A7010E948B1E0E94B01E88EB9BE0F6018B
:101D10003197F1F70197D9F70150104099F60E94D9
:101D2000B61C0F90CF91DF911F910F91FF90EF9014
:101D3000DF90CF90BF90AF9008952F923F924F9237
:101D40005F926F927F928F929F92AF92BF92CF924B
:101D5000DF92EF92FF920F931F93DF93CF9300D008
:101D600000D00F92CDB7DEB71AE0A12EB12C05E05E
:101D700010E0EE24E39458C00E94B61C0E949F0518
:101D80000E94B01E2FB18FB182958695877090E02A
:101D9000229526952695237030E0822B932B80FF89
:101DA00043C080913803909139039C0101967E993C
:101DB000FCCFC9012F5F3F4F7D99FBCF8093380344
:101DC000909339030E9430080E94A8060E943607AB
:101DD000B092E502A092E40210926A0310926903A5
:101DE0001093A7030093A60310924F0310924E0383
:101DF00010923B0310923A0310923D0310923C0361
:101E000010923F0310923E03109241031092400340
:101E10000E94480E0E94BE050E94B01E1092DF0272
:101E200010923603E092BD038091DF02882309F00F
:101E3000A3CF0E94FC2363E070E00E944D23029632
:101E400090934503809344030E94FC236AE070E072
:101E50000E944D23AA2797FDA095BA2FBC01CD0162
:101E60000E94052120E030E040E251E40E946A2017
:101E70009B01AC010E94EC1F20E030E040E050E408
:101E80000E94EC1F609346037093470380934803BE
:101E900090934903FF24F394B0ECDB2E44C560918A
:101EA000BE037091BF038091C0039091C1030E9453
:101EB000D2201B016091C2037091C3038091C403BF
:101EC0009091C5030E94D2202B010E94B61C0E9453
:101ED000BE0584E593E00E945A1F0E94A10B0E9458
:101EE000000A0E94B01E0E949B023B014C0180919F
:101EF0004E0390914F03059709F045C0809136033A
:101F0000882309F040C0F09236031092660380E007
:101F100090E0A0E0B0E08093540390935503A09329
:101F20005603B09357038093580390935903A0939B
:101F30005A03B0935B031092370380935C03909332
:101F40005D03A0935E03B0935F038093600390935F
:101F50006103A0936203B093630388EA93E040E0D7
:101F600050E068E472E400E010E020EA31E4AAE026
:101F7000EA2EF8E0CF2EEEE0AE2EE3E0BE2E0E9479
:101F8000321F0E94AA0880913603882309F498C062
:101F900088EA93E00E945A1F0E941C03882311F4D0
:101FA0000E94AA08C401B30120914A0330914B0357
:101FB00040914C0350914D030E9441228823C4F16B
:101FC00088EA93E00E945A1F6091A8037091A903C8
:101FD0008091AA039091AB032091B0033091B1039B
:101FE0004091B2035091B3030E94EC1F6093A80389
:101FF0007093A9038093AA039093AB036091AC0301
:102000007091AD038091AE039091AF032091B40322
:102010003091B5034091B6035091B7030E94EC1F75
:102020006093AC037093AD038093AE039093AF03C2
:10203000C401B30120914A0330914B0340914C03FA
:1020400050914D030E9441228823D4F10E941C0329
:102050008823B1F50E94FC236AE070E00E944D23C2
:10206000AA2797FDA095BA2FBC01CD010E9405219A
:1020700020E030E040E251E40E946A2020E030E0BD
:1020800040E850E40E94452220E030E040E050E487
:102090000E94EC1F9B01AC016093460370934703C1
:1020A0008093480390934903C401B3010E94EC1F3D
:1020B00060934A0370934B0380934C0390934D03BA
:1020C0008091DE02882309F47DC080913603882345
:1020D00009F478C088EA93E00E945A1F6091A8032F
:1020E0007091A9038091AA039091AB032091B00352
:1020F0003091B1034091B2035091B3030E94EC1FA1
:102100006093A8037093A9038093AA039093AB03F1
:102110006091AC037091AD038091AE039091AF03D9
:102120002091B4033091B5034091B6035091B703A9
:102130000E94EC1F6093AC037093AD038093AE03D9
:102140009093AF030E941C038823D1F50E94AA0834
:102150000E94FC236AE070E00E944D23AA2797FDAD
:10216000A095BA2FBC01CD010E94052120E030E0EE
:1021700040E251E40E946A2020E030E040E850E470
:102180000E94452220E030E040E050E40E94EC1F35
:102190009B01AC016093460370934703809348030F
:1021A00090934903C401B3010E94EC1F60934A035A
:1021B00070934B0380934C0390934D031092DE0277
:1021C0000E94B01E8CE793E068EA73E00E94DA0D8B
:1021D000882309F4C7C080918E03882309F4C2C004
:1021E000B101882777FD8095982F0E940521609383
:1021F0007C0370937D0380937E0390937F03B201F1
:10220000882777FD8095982F0E9405216093800391
:1022100070938103809382039093830310928E03C3
:102220008091E4029091E50201979093E5028093FA
:10223000E402099719F490E890930F038091E40267
:102240009091E502089711F410920F038091E40237
:102250009091E502079729F48EEF80930E03109278
:102260000F038091E4029091E502069729F4ACEF08
:10227000A0930E0310920F038091E4029091E50267
:10228000059729F4B8EFB0930E0310920F038091D5
:10229000E4029091E502049729F420EF20930E03C5
:1022A00010920F038091E4029091E502039729F4C4
:1022B00030EE30930E0310920F038091E402909160
:1022C000E502029721F4D0920E0310920F03809141
:1022D000E4029091E502019729F480E880930E03CF
:1022E00010920F038091E4029091E502892BD1F5C1
:1022F0001092BA0380E090E0A0E0B0E08093A803E1
:102300009093A903A093AA03B093AB038093AC036B
:102310009093AD03A093AE03B093AF038091690394
:1023200090916A030A9690936A03809369030E94CE
:10233000A806F09266038AE090E09093E50280930D
:10234000E40210924F0310924E039FEF90930E03FE
:10235000D0920F031092360386E891E00E94410567
:102360000E94B01E88EA93E06EEB73E00E94DA0DE3
:10237000882379F110928E030E943008B1018827DA
:1023800077FD8095982F0E94052160937C037093C0
:102390007D0380937E0390937F03B201882777FDAE
:1023A0008095982F0E94052160938003709381038C
:1023B000809382039093830383EA91E00E94410516
:1023C0008091A6039091A70301979093A703809310
:1023D000A60388EA93E061E973E00E94DA0D88239E
:1023E00099F1109243031092420310928E030E94BF
:1023F0003008B101882777FD8095982F0E9405212C
:1024000060937C0370937D0380937E0390937F039E
:10241000B201882777FD8095982F0E94052160934F
:10242000800370938103809382039093830383EAF4
:1024300091E00E9441058091A6039091A703019726
:102440009093A7038093A6030E94BF02882301F5FF
:1024500010928E03B101882777FD8095982F0E94F6
:10246000052160937C0370937D0380937E0390939A
:102470007F03B201882777FD8095982F0E94052160
:10248000609380037093810380938203909383030E
:102490008CE793E064E573E00E94DA0D882309F489
:1024A00042C080918E038823F1F1B101882777FD26
:1024B0008095982F0E94052160937C0370937D0383
:1024C00080937E0390937F03B201882777FD8095E8
:1024D000982F0E940521609380037093810380935D
:1024E0008203909383038091690390916A0301961C
:1024F00090936A038093690380914E0390914F03F8
:10250000019690934F0380934E03109237031092DD
:1025100043031092420380EC91E00E944105109227
:102520008E030E94A8068EEB93E064E573E00E94A0
:10253000DA0D882399F1109243031092420310920E
:102540008E030E943008B101882777FD8095982F6F
:102550000E94052160937C0370937D0380937E032A
:1025600090937F03B201882777FD8095982F0E9472
:10257000052160938003709381038093820390937D
:1025800083038CED91E00E9441058091A603909118
:10259000A70301979093A7038093A60384E593E094
:1025A00061E973E00E94DA0D882399F110924303E8
:1025B0001092420310928E030E943008B1018827C6
:1025C00077FD8095982F0E94052160937C0370937E
:1025D0007D0380937E0390937F03B201882777FD6C
:1025E0008095982F0E94052160938003709381034A
:1025F00080938203909383038CED91E00E944105C8
:102600008091A6039091A70301979093A7038093CD
:10261000A6030E94EE028823E1F18091370388230C
:10262000C1F184E593E00E945A1F609154037091B8
:102630005503809156039091570320915C0330918C
:102640005D0340915E0350915F030E94EC1F609315
:1026500054037093550380935603909357036091EE
:1026600058037091590380915A0390915B03209114
:1026700060033091610340916203509163030E94B3
:10268000EC1F609358037093590380935A039093FF
:102690005B030E94EE028823D1F41092370380E09E
:1026A00090E0A0E0B0E080935C0390935D03A09382
:1026B0005E03B0935F038093600390936103A093E4
:1026C0006203B093630384E593E00E945A1F8091F4
:1026D000320390913303A0913403B0913503C39733
:1026E000A105B10508F451C0ADB7BEB718970FB634
:1026F000F894BEBF0FBEADBFEDB7FEB7319621E077
:1027000030E02C0F3D1F12963C932E93119784EFCF
:1027100091E09383828335822482578246820E948D
:1027200026258091E0029091E102ADB7BEB71896E0
:102730000FB6F894BEBF0FBEADBF8430910519F43B
:1027400081E092E00BC08130910519F48FE092E0B6
:1027500005C08230910539F48BE192E00E94410579
:10276000CE01019608C0039741F4CE0101960E9464
:1027700041058AE292E00E944105109232031092D4
:10278000330310923403109235038091A603909185
:10279000A7031816190644F0F0926B031092BD03BC
:1027A00010923703109236038091420390914303B5
:1027B000059724F0109243031092420380912A035C
:1027C00090912B03A0912C03B0912D038536910598
:1027D000A105B10508F44DC080913C0390913D03E3
:1027E0000597C1F480913A0390913B03099791F4C6
:1027F00010923B0310923A0310923D0310923C0357
:1028000080913E0390913F03019690933F03809304
:102810003E031AC080913A0390913B0389309105A1
:1028200071F410923B0310923A0380913C03909113
:102830003D03019690933D0380933C0305C00196B0
:1028400090933B0380933A0380913703882349F4A4
:1028500080914203909143030196909343038093A8
:10286000420310922A0310922B0310922C03109211
:102870002D032091420330914303809144039091B2
:1028800045032817390709F04CC080913603882387
:1028900009F047C00E94FC2362E070E00E944D23D3
:1028A0000296909345038093440310924303109241
:1028B00042030E9455096091540370915503809121
:1028C00056039091570320915C0330915D03409132
:1028D0005E0350915F030E94EC1F6093540370935A
:1028E000550380935603909357036091580370915A
:1028F000590380915A0390915B03209160033091BA
:10290000610340916203509163030E94EC1F609346
:1029100058037093590380935A0390935B03F0928A
:1029200037030E94B01E8091BD03882309F0B7CA07
:102930002FC00E94B61C0E9486050E94B01E2FB1B7
:102940008FB182958695877090E022952695269581
:10295000237030E0822B932B80FF1BC080913803C3
:10296000909139039C0101967E99FCCF2093380306
:1029700030933903C9012F5F3F4F7D99FBCF80937F
:102980003803909339031093DF0210926B0301C058
:1029900011E080916B03882361F60F900F900F90E8
:1029A0000F900F90CF91DF911F910F91FF90EF90BB
:1029B000DF90CF90BF90AF909F908F907F906F905F
:1029C0005F904F903F902F90089580E88093610032
:1029D00081E0809361000E9407050E94B61C85E09B
:1029E00068E048E352E00E948B1E85E060E145E428
:1029F00052E00E948B1E0E94B01E0E945815882330
:102A0000E1F30E945A178823C1F381E592E00E9406
:102A10002E0584E792E00E942E050E94B61C85E0F8
:102A200060E043EA52E00E948B1E85E068E04EEAD7
:102A300052E00E948B1E85E060E14AEB52E00E946A
:102A40008B1E85E068E144EC52E00E948B1E85E01D
:102A500060E243ED52E00E948B1E0E94B01E88EAA5
:102A600091E628EC30E0F9013197F1F70197D9F7B9
:102A70000E94B61C0E949D0E0E94B01EFBCF81E0FA
:102A80008093D70080EA8093D80082E189BD09B4A1
:102A900000FEFDCF80E98093D8001092E0001092F4
:102AA0005003109251038CE08093E20078940895D3
:102AB0008091500308952FB7F89480915003882394
:102AC00069F083E08093E9009BE68091E80085FD52
:102AD00009C082FF03C09093E800F7CF2FBF2FEF0C
:102AE0003FEF0CC09091F1008091E80085FD03C09C
:102AF0008BE68093E8002FBF292F30E0C9010895AD
:102B00002FB7F89480915003882311F490E010C0FF
:102B100083E08093E9009091F200992349F4809139
:102B2000E80082FF05C085FD03C08BE68093E800C6
:102B30002FBF892F089580915003882371F09FB78C
:102B4000F89483E08093E9002BE602C02093E8002C
:102B50008091E80085FDFACF9FBF0895482F8091AE
:102B600050038823D9F12FB7F89484E08093E900CB
:102B700080915303882341F08091E80085FD02C0D5
:102B80002FBF12C0109253039091E400975E34E07F
:102B90008091E80085FD13C02FBF8091E400891764
:102BA00029F481E0809353038FEF089580915003BF
:102BB0008823A1F02FB7F8943093E900E9CF409330
:102BC000F1008091E80085FD03C08AE38093E8006E
:102BD00085E0809352032FBF80E008958FEF089522
:102BE000282F80915003882351F09FB7F89484E0F8
:102BF0008093E9008091E80085FD03C09FBF8FEFBF
:102C000008952093F1008091E80085FD03C08AE3D8
:102C10008093E80085E0809352039FBF80E0089591
:102C2000CF93DF93EC0180915003882309F41CC1FA
:102C30003FB7F89484E08093E900809153038823A0
:102C400009F408C18091E80085FD02C03FBF0CC1B6
:102C500010925303FFC09091E400975E8091E800CA
:102C600085FD13C03FBF8091E400891721F481E006
:102C700080935303F9C080915003882309F4F4C072
:102C80003FB7F894B093E900E9CF8091F200242F88
:102C9000281B822F90E06817790708F4262F822FCF
:102CA00090E08134910508F0C6C08A5A9F4FFC011C
:102CB000EE0FFF1F0590F491E02D09948991809308
:102CC000F10089918093F10089918093F1008991BD
:102CD0008093F10089918093F10089918093F100B4
:102CE00089918093F10089918093F100899180937B
:102CF000F10089918093F10089918093F10089918D
:102D00008093F10089918093F10089918093F10083
:102D100089918093F10089918093F100899180934A
:102D2000F10089918093F10089918093F10089915C
:102D30008093F10089918093F10089918093F10053
:102D400089918093F10089918093F100899180931A
:102D5000F10089918093F10089918093F10089912C
:102D60008093F10089918093F10089918093F10023
:102D700089918093F10089918093F10089918093EA
:102D8000F10089918093F10089918093F1008991FC
:102D90008093F10089918093F10089918093F100F3
:102DA00089918093F10089918093F10089918093BA
:102DB000F10089918093F10089918093F1008991CC
:102DC0008093F10089918093F10089918093F100C3
:102DD00089918093F10089918093F100899180938A
:102DE000F10089918093F10089918093F10089919C
:102DF0008093F10089918093F10089918093F10093
:102E000089918093F10089918093F1008991809359
:102E1000F10089918093F10089918093F10089916B
:102E20008093F10089918093F10089918093F10062
:102E300089918093F10089918093F1008091E8005D
:102E400085FD02C05093E800621B7109A0935203F4
:102E50003FBF04C0B4E040E45AE3A5E0611571054A
:102E600009F0F9CE80E001C08FEFDF91CF91089596
:102E70009FB7F89480915203882341F084E08093B7
:102E8000E9008AE38093E800109252039FBF0895FF
:102E900060911E0370911F03809120039091210384
:102EA00008958091220308958091230308958091CD
:102EB00024030895809151030895282F9FB7F89413
:102EC00080915003882339F082E08093E90080915B
:102ED000E80085FD03C09FBF8FEF089581EA8093CE
:102EE000F10080E28093F1001092F1001092F10065
:102EF0001092F1001092F10081E08093F1001092A5
:102F0000F1002093F1008AE38093E8009FBF80E006
:102F100008951F920F920FB60F9211248F939F93D3
:102F20008091E1001092E100982F83FF11C0109270
:102F3000E90081E08093EB001092EC0082E1809345
:102F4000ED0088E08093F00010925003109251033E
:102F500092FF13C080915003882379F0809152032F
:102F6000882359F0815080935203882331F484E000
:102F70008093E9008AE38093E8009F918F910F90FE
:102F80000FBE0F901F9018951F920F920FB60F92C1
:102F900011240F931F932F933F934F935F936F933E
:102FA0007F938F939F93AF93BF93EF93FF93109271
:102FB000E9008091E80083FF3CC14091F10030912D
:102FC000F1008091F100682F70E02091F100922FC4
:102FD00080E0682B792B8091F100A82FB0E0209140
:102FE000F100922F80E0A82BB92B1091F1000091F5
:102FF000F10082EF8093E800363009F05AC023E5F3
:1030000031E0A90145505040F901379785919491DD
:103010008617970701F5FA01859194918A179B0706
:10302000D1F49A012E5F3F4FF901659174912E5FA3
:103030003F4FF9014491212F30E0902F80E0282B61
:10304000392B2F3F310519F010F02FEF30E0241706
:1030500058F4422F09C0295F3F4F495F5F4FF1E0AD
:103060002D373F0789F6E5C05EEF8091E800282FF5
:1030700030E0C90185709070892BB9F322FDDCC066
:10308000342F413108F030E1232FCB0106C0FC0181
:103090000196E491E093F10021502223C1F7630FE0
:1030A000711D431B5093E8004423F9F63031E9F2D7
:1030B000C3C0353061F48EEF8093E8008091E80062
:1030C00080FFFCCF862F80688093E300B5C0393045
:1030D00051F5442309F0ADC06093500310925103A1
:1030E000109252038EEF8093E80086E791E021E092
:1030F0002093E900FC010196E491E093EB00EE23BC
:1031000069F0AC014F5F5F4FFC0184918093EC004C
:10311000CA010196FA0134913093ED002F5F2530FA
:1031200039F78EE181C0383061F4403809F081C050
:103130008091E80080FFFCCF809150038093F100E4
:1031400050C0313289F4413A09F073C08091E800EF
:1031500080FFFCCFEEE1F3E081918093F10083E00A
:10316000E532F807C9F73DC03032A1F4413209F029
:1031700060C08091E80082FFFCCFEEE1F3E0809137
:10318000F100819383E0E532F807C9F78BEF809374
:10319000E80027C0323251F4413209F04AC060934E
:1031A00051038091E80080FFFCCF1BC03323E9F47A
:1031B0008091E80080FFFCCF423811F080E00DC024
:1031C000A093E9008091EB0090E025E0969587952B
:1031D0002A95E1F781701092E9008093F100109236
:1031E000F1008EEF8093E80027C0313011F03330CA
:1031F00001F54230F1F4672BE1F42A2F2F77822F6B
:1032000081508430B0F48EEF8093E8002093E90081
:10321000333079F089E18093EB0081E090E002C0E7
:10322000880F991F2A95E2F78093EA001092EA002E
:1032300003C081E28093EB00FF91EF91BF91AF91CA
:103240009F918F917F916F915F914F913F912F91BE
:103250001F910F910F900FBE0F901F901895A1E135
:10326000B0E0E5E3F9E10C9460233C017F876E87D1
:103270006A01FC0117821682838181FD03C06FEF12
:103280007FEF6FC39E012F5F3F4F398B288BF30178
:103290002381EE85FF8523FD859123FF8191FF87A3
:1032A000EE87882309F45AC3853251F4EE85FF85F1
:1032B00023FD859123FF8191FF87EE87853229F4D5
:1032C00090E0B3010E94FA24E2CF982F10E0882406
:1032D00099241032B0F49B3269F09C3228F4903279
:1032E00051F0933271F40BC09D3239F0903349F4B0
:1032F000116028C01260146025C0186023C01061DE
:1033000021C017FD2AC0892F80538A3078F416FF18
:1033100006C0FAE09F9E902C1124980E13C03AE04C
:10332000839E802C1124880E10620CC09E3221F4E2
:1033300016FD14C3106406C09C3611F4106802C058
:10334000983659F4EE85FF8523FD959123FF9191E1
:10335000FF87EE87992309F0BCCF892F85548330EE
:1033600020F4812F8061905E07C0892F85568330BD
:1033700008F09FC1812F8F7E86FD02C076E0972ED8
:103380006FE3F62EF822953619F4F0E4FF2A07C011
:10339000963619F420E8F22A02C091109A94F7FEAA
:1033A0000AC03BE3391518F45CE3B52E02C0B92C12
:1033B000B39427E009C047E0491520F4BB2447E057
:1033C000942EF7CF292DBB24C60104969D878C87A8
:1033D000F6016081718182819381AE014F5F5F4F01
:1033E0000B2D0E940C246C010981202E332400FF38
:1033F00004C003FD02C01DE209C0F1FE02C01BE2D1
:1034000005C0F2FC02C010E001C010E2C1018C70E6
:103410009070892BB9F1112311F483E001C084E08D
:10342000881510F088240AC0881AF3FC07C080E2CF
:1034300090E0B3010E94FA248A94C9F7112329F07D
:10344000812F90E0B3010E94FA2423FE03C005E11E
:1034500012E00EC009E112E00BC0E114F10409F022
:10346000805290E0B3010E94FA240F5F1F4F05C005
:10347000EF2CFF24F0E1EF22FF24F8018491882350
:1034800061F714C1F7FE12C0BC0C24FE04C08A818F
:10349000813309F4BA941B141CF0BB24B3942DC0DF
:1034A000F8E0FB1550F538E0B32E27C0F6FC25C038
:1034B000892D90E08C159D054CF02CEFC2162FEF56
:1034C000D20624F030E8F32A01C09A94992049F0FA
:1034D000E2E0F0E0EC0FFD1FE90DF11D808180338B
:1034E000A1F3F7FE0AC0B92CB394892D90E0C81659
:1034F000D90614F0992401C09C18F7FC03C025E0FC
:1035000030E009C01C141D041CF021E030E003C0B1
:1035100096012F5F3F4F112311F02F5F3F4F9920EE
:1035200029F0892D90E00196280F391F882D90E011
:103530002817390714F0882401C0821A4F2C55240B
:10354000C20189709070892B39F008C080E290E048
:10355000B3010E94FA248A948820C1F7112329F02C
:10356000812F90E0B3010E94FA2443FE07C008C0F7
:1035700080E390E0B3010E94FA248A948820C1F786
:10358000F7FE46C08601D7FE02C000E010E07601DB
:103590000894E11CF11CE01AF10A41E050E04C0FE4
:1035A0005D1FE40EF51E26014B185108892D90E091
:1035B000AA24BB24A81AB90A5FEF0F3F150729F404
:1035C0008EE290E0B3010E94FA24C016D10634F0D6
:1035D000401651061CF4F701808101C080E30150C0
:1035E00010400894E11CF11C0A151B052CF090E01A
:1035F000B3010E94FA24E0CF0C151D0539F49A811D
:10360000963318F4953311F424FE81E390E04BC017
:103610008A81813309F00F7E90E0B3010E94FA2481
:103620009920A1F08EE290E0B3010E94FA2412E00A
:10363000E1E0F0E0EC0FFD1FE10FF11D1F5F808165
:1036400090E0B3010E94FA249A9491F744FC03C0DD
:1036500085E690E002C085E490E0B3010E94FA2480
:10366000D7FC05C0C114D10441F404FF06C0D094B6
:10367000C194D108D3948DE201C08BE290E0B301F4
:103680000E94FA2480E305C08F5F26EF3FEFC20E51
:10369000D31E3AE0C316D104BCF790E0B3010E94F8
:1036A000FA24C601C096B3010E94FA24CC84DD84BA
:1036B00052C1933631F0933799F0933509F059C0E0
:1036C00023C0F601808189835E010894A11CB11C8E
:1036D00022E030E0C20ED31E21E0E22EF12C12C017
:1036E000F601A080B18016FD03C06FEF7FEF02C02E
:1036F000692D70E022E030E0C20ED31EC5010E94A9
:10370000EF247C011F7713C0F601A080B18016FD65
:1037100003C06FEF7FEF02C0692D70E022E030E060
:10372000C20ED31EC5010E94E4247C01106813FF61
:1037300007C01BC080E290E0B3010E94FA248A9483
:10374000882D90E0E816F906A8F30FC0F50117FDE3
:10375000859117FF81915F0190E0B3010E94FA24E7
:1037600081108A940894E108F108E114F10471F7DA
:10377000F2C0943611F0993689F517FF08C0F601AA
:10378000208131814281538184E090E00AC0F601BA
:10379000808191819C01442737FD4095542F82E020
:1037A00090E0C80ED91E9FE6F92EF12257FF09C0FE
:1037B00050954095309521953F4F4F4F5F4F90E882
:1037C000F92ACA01B901AE014F5F5F4F2AE030E02C
:1037D0000E944A25E82EE889EE1A41C0953721F467
:1037E0001F7E2AE030E01CC0197F9F3661F09037C1
:1037F00020F4983509F0B2C00FC0903739F09837EF
:1038000009F0ACC004C028E030E00AC0106114FD2B
:10381000146020E130E004C014FD166020E132E0C5
:1038200017FF08C0F601608171818281938144E0B5
:1038300050E008C0F60180819181BC0180E090E0F9
:1038400042E050E0C40ED51EAE014F5F5F4F0E94B4
:103850004A25E82E5889E51A8FE7F82EF122F6FE60
:103860000BC08EEFF822E91438F4F4FE07C0F2FC26
:1038700005C09FEEF92202C01E2D01C0192DF4FED5
:103880000DC0FE01EE0DF11D8081803319F4E9EECB
:10389000FE2208C01F5FF2FE05C003C08F2D867890
:1038A00009F01F5F0F2DF3FC14C0F0FE0FC01815B8
:1038B00010F09E2C0BC09E2C980C911A182D06C04F
:1038C00080E290E0B3010E94FA241F5F1815C0F354
:1038D00004C0181510F4811A01C0882404FF0FC019
:1038E00080E390E0B3010E94FA2402FF1DC001FDB5
:1038F00003C088E790E00EC088E590E00BC0802F01
:10390000867891F001FF02C08BE201C080E2F7FCF3
:103910008DE290E0B3010E94FA2406C080E390E0BB
:10392000B3010E94FA249A94E914C0F3EA94E1E006
:10393000F0E0EC0FFD1FEE0DF11D808190E0B30172
:103940000E94FA24EE2091F706C080E290E0B301D5
:103950000E94FA248A948820C1F799CCF3016681E9
:103960007781CB016196E2E10C947C23E3EDF3E0F7
:10397000119285E0EB3CF807D9F70895843580F57E
:10398000603370F5262F269526952695677090E072
:10399000442399F0E4E52E9FF0011124E80FF91F6C
:1039A000ED52FC4F81E090E002C0880F991F6A95AC
:1039B000E2F72081282B20830895E4E52E9FF00173
:1039C0001124E80FF91FED52FC4F81E090E002C096
:1039D000880F991F6A95E2F780952081282320831C
:1039E00008952F923F924F925F926F927F928F92A3
:1039F0009F92AF92BF92CF92DF92EF92FF920F937E
:103A00001F93DF93CF93CDB7DEB72D970FB6F89402
:103A1000DEBF0FBECDBFD82EC62E142F022F8417A7
:103A2000F9F4A62EBB24E22EFF240EC08D2D6A2DA4
:103A300041E00E94BE1CC01620F40894A11CB11CD9
:103A400003C00894A108B108C01628F4EA14FB04C6
:103A50000CF4FEC0EBCFAE14BF040CF4F9C0E6CFFB
:103A6000282F30E06017F9F4C9015C01E42EFF242F
:103A70000EC08A2D6C2D41E00E94BE1CD11620F490
:103A80000894A11CB11C03C00894A108B108D11668
:103A900028F4EA14FB040CF4DBC0EBCFAE14BF0433
:103AA0000CF4D6C0E6CF842F90E09A838983C901B5
:103AB0005C0169817A81681B790B882777FD809585
:103AC000982F0E9405216F83788789879A87202EF7
:103AD00033244C2C5524B10164197509882777FDCE
:103AE0008095982F0E9405213B014C012F8138853C
:103AF00049855A850E946A206B837C838D839E83CF
:103B000020E030E040E050E00E94412287FF0DC0FD
:103B1000C401B30190582F81388549855A850E9488
:103B20006A206B837C838D839E830F2EF0E0CF2EE3
:103B3000F0E0DF2EF0E0EF2EF0E0FF2EF02D70C071
:103B4000AB868A2D642D41E00E94BE1CC701B601E0
:103B50002B813C814D815E810E94EC1F31C08B85A1
:103B6000642D41E00E94BE1C1D861C86C401B30169
:103B700020E030E040E050E00E944122181624F49A
:103B8000E1E0F0E0FD87EC8700E010E0C401B30164
:103B900020E030E040E050E00E946320882314F4ED
:103BA00001E010E08C859D85801B910B480E591E0D
:103BB000C701B60120E030E040E85FE30E94EB1F60
:103BC0006B017C0120E030E040E05FE30E94412295
:103BD00088239CF0C401B30120E030E040E050E0D5
:103BE0000E94412218162CF4241435040CF0B7CF8F
:103BF00004C0421453040CF0B2CF6F8178858985DC
:103C00009A8520E030E040E050E00E944122181602
:103C100024F40894A11CB11C03C00894A108B108A5
:103C20006F81788589859A8520E030E040E050E01A
:103C30000E944122181634F4E981FA81EA15FB0545
:103C40003CF07ECF89819A81A816B9060CF078CF16
:103C50002D960FB6F894DEBF0FBECDBFCF91DF918A
:103C60001F910F91FF90EF90DF90CF90BF90AF909A
:103C70009F908F907F906F905F904F903F902F908C
:103C800008959F92AF92BF92CF92DF92EF92FF92F0
:103C90000F931F93CF93DF93982EC62E85E0489FF6
:103CA000E0011124C05AD04000E081E0A82EB12CE0
:103CB00018C0612F6C0DA501012E02C0440F551FC5
:103CC0000A94E2F74E215F21012E02C055954795D7
:103CD0000A94E2F78D2D0E94BE1C1F5F183049F731
:103CE0000F5F053061F0FE01E00FF11DE35EFD4F57
:103CF00010E0E491D02ED90CEE2EFF24EFCFDF910F
:103D0000CF911F910F91FF90EF90DF90CF90BF90D8
:103D1000AF909F900895EF92FF920F931F93CF93D0
:103D2000DF93F82E062F142F242F352FC901EC0115
:103D300095E0E92E08C08E9DC00111248F0D602FE3
:103D40000E94411E21969E01211B822F48814423FF
:103D500091F7DF91CF911F910F91FF90EF90089510
:103D6000CF93DF9380E060E00E94251FC3EDD3E096
:103D700081E069910E94C31E85E0CB3CD807C1F762
:103D8000DF91CF91089595B18295880F807E9F7DB8
:103D9000982B95B95F9827E030E070E08F98CB01C1
:103DA000022E02C0959587950A94E2F780FF02C023
:103DB0002E9A01C02E988F9A215030408FEF2F3FBE
:103DC000380761F75F9A08951F93182F579A249A1E
:103DD000259A269A879A2C985F9A2C9A80E061E21D
:103DE0000E94C31E106880E0612F0E94C31E80E005
:103DF00064E00E94C31E80E063E10E94C31E80E075
:103E00006CE00E94C31E80E060E20E94C31E80E05E
:103E10006CE00E94C31E80E060E40E94C31E80E04C
:103E200060E80E94C31E1F910895CF93DF93C0E006
:103E3000D0E081E060E00E94C31E219681E0C83F8F
:103E4000D807B9F7DF91CF9108951F93182F6064B9
:103E500080E00E94C31E106880E0612F0E94C31E94
:103E60001F910895AF92BF92CF92EF920F931F933D
:103E7000FC0140835183628373830483158326830B
:103E80003783E08AC18AB48AA38A81E0828B80E08A
:103E900090E0A0E0B0E080879187A287B387848715
:103EA0009587A687B7871F910F91EF90CF90BF900E
:103EB000AF9008953F924F925F926F927F928F9250
:103EC0009F92AF92BF92CF92DF92EF92FF920F93A9
:103ED0001F93CF93DF93EC018A89882309F469C08B
:103EE000688970E0882777FD8095982F0E940521CA
:103EF00020E030E040E05EE30E9445220E94502036
:103F00000E94D720362E882447C0092D10E0B80122
:103F1000882777FD8095982F0E94052120E030E0CA
:103F200040E05EE30E9445220E9440216B017C013B
:103F3000688179818A819B810E94D720A92CA60E55
:103F40006C817D818E819F810E94D720B82CB60E16
:103F5000C301B2010E940521A70196010E94EC1F36
:103F60000E94D220EB89FC89E60FF71F408150E0C8
:103F7000009510950770107002C0559547950A95E9
:103F8000E2F741708A2D6B2D0E94BE1C93948889A4
:103F9000981608F4BACF83948989881650F4839CC4
:103FA000C001112499242C01662457FC6094762CBE
:103FB000EECFDF91CF911F910F91FF90EF90DF90A7
:103FC000CF90BF90AF909F908F907F906F905F90B9
:103FD0004F903F9008955058BB27AA270ED0EFC1AD
:103FE000B8D130F0BDD120F031F49F3F11F41EF470
:103FF000ADC10EF4E095E7FB7AC1E92F02D280F360
:10400000BA17620773078407950718F071F49EF5D5
:1040100031C20EF4E0950B2EBA2FA02D0B01B90181
:1040200090010C01CA01A0011124FF27591B99F02E
:10403000593F50F4503E68F11A16F040A22F232F3A
:10404000342F4427585FF3CF469537952795A7958A
:10405000F0405395C9F77EF41F16BA0B620B730B31
:10406000840BBAF09150A1F0FF0FBB1F661F771FA2
:10407000881FC2F70EC0BA0F621F731F841F48F457
:10408000879577956795B795F7959E3F08F0B3CFDD
:104090009395880F08F09927EE0F979587950895C7
:1040A000D2D180F09F3740F491110EF4E4C160E06A
:1040B00070E080E89FE3089526F01B16611D711DD6
:1040C000811D1BC135C1EFD008F481E0089550D1A6
:1040D000E39586C10CD073C143D140F03AD130F0A2
:1040E00021F45F3F19F003C15111C5C12FC189D11E
:1040F00098F39923C9F35523B1F3951B550BBB27AF
:10410000AA2762177307840738F09F5F5F4F220F5B
:10411000331F441FAA1FA9F333D00E2E3AF0E0E854
:1041200030D091505040E695001CCAF729D0FE2FA0
:1041300027D0660F771F881FBB1F26173707480732
:10414000AB07B0E809F0BB0B802DBF01FF279358E8
:104150005F4F2AF09E3F510568F0C9C08CC15F3F98
:10416000ECF3983EDCF3869577956795B795F795D0
:104170009F5FC9F7880F911D9695879597F90895C8
:10418000E1E0660F771F881FBB1F62177307840764
:10419000BA0720F0621B730B840BBA0BEE1F88F773
:1041A000E095089504D06894B11165C1089531D1A6
:1041B00088F09F5790F0B92F9927B751A0F0D1F010
:1041C000660F771F881F991F1AF0BA95C9F712C09A
:1041D000B13081F04FD1B1E008954CC1672F782FF5
:1041E0008827B85F39F0B93FCCF386957795679506
:1041F000B395D9F73EF490958095709561957F4F72
:104200008F4F9F4F0895E89409C097FB3EF4909517
:104210008095709561957F4F8F4F9F4F9923A9F09F
:10422000F92F96E9BB279395F6958795779567952E
:10423000B795F111F8CFFAF4BB0F11F460FF1BC072
:104240006F5F7F4F8F4F9F4F16C0882311F096E905
:1042500011C0772321F09EE8872F762F05C06623B3
:1042600071F096E8862F70E060E02AF09A95660F6C
:10427000771F881FDAF7880F9695879597F9089525
:10428000E2D080F09F3740F491110EF0F4C060E06E
:1042900070E080E89FEB089526F41B16611D711DE8
:1042A000811D2BC045C0990F0008550FAA0BE0E8EF
:1042B000FEEF16161706E807F907C0F012161306E8
:1042C000E407F50798F0621B730B840B950B39F428
:1042D0000A2661F0232B242B252B21F408950A268E
:1042E00009F4A140A6958FEF811D811D089597F9CE
:1042F0009F6780E870E060E00895882371F4772379
:1043000021F09850872B762F07C0662311F4992748
:104310000DC09051862B70E060E02AF09A95660FF0
:10432000771F881FDAF7880F9695879597F9089574
:104330009F3F31F0915020F4879577956795B79519
:10434000880F911D9695879597F908959FEF80ECBA
:10435000089500240A9416161706180609060895EB
:1043600000240A9412161306140605060895EECFCB
:1043700050D0E8F3E894E0E0BB279F57F0F02AED37
:104380003FE049EC06C0EE0FBB0F661F771F881F8A
:1043900028F0B23A62077307840728F0B25A620B1A
:1043A000730B840BE3959A9572F7803830F49A95E5
:1043B000BB0F661F771F881FD2F79048BBCF092E0F
:1043C0000394000C11F4882352F0BB0F40F4BF2B70
:1043D00011F460FF04C06F5F7F4F8F4F9F4F0895B0
:1043E000EF93E0FF06C0A2EA2AED3FE049EC5FEB65
:1043F00004DEE5DF0F90039401FC9058EEE2F1E05B
:1044000016C157FD9058440F551F59F05F3F71F08A
:104410004795880F97FB991F61F09F3F79F087952B
:104420000895121613061406551FF2CF4695F1DFB4
:1044300008C0161617061806991FF1CF8695710544
:10444000610508940895E5DFA0F0BEE7B91788F488
:10445000BB279F3860F41616B11D672F782F882769
:10446000985FF7CF869577956795B11D93959639A7
:10447000C8F30895E894BB2766277727CB0197F9FF
:10448000089511DF08F48FEF08950BD098CF61DF06
:1044900028F066DF18F0952309F029CF57CF1124B3
:1044A000EACFAFDFA0F3959FD1F3950F50E0551FF2
:1044B000629FF001729FBB27F00DB11D639FAA2779
:1044C000F00DB11DAA1F649F6627B00DA11D661FC8
:1044D000829F2227B00DA11D621F739FB00DA11DE9
:1044E000621F839FA00D611D221F749F3327A00DA3
:1044F000611D231F849F600D211D822F762F6A2F3F
:1045000011249F5750408AF0E1F088234AF0EE0FC3
:10451000FF1FBB1F661F771F881F91505040A9F7D0
:104520009E3F510570F0E3CEA6CF5F3FECF3983E7F
:10453000DCF3869577956795B795F795E7959F5F37
:10454000C1F7FE2B880F911D9695879597F90895D1
:1045500060DFE0F09E37D8F09639B8F49E3848F422
:10456000672F782F8827985FF9CF8695779567957D
:1045700093959539D0F3B62FB1706B0F711D811DD6
:1045800020F48795779567959395B7CED1CE73CF65
:104590009F93EEDE0F9007FCEE5F22CF11F40EF436
:1045A000D5CEC6CE36DFD0F39923D9F3CEF39F57BD
:1045B000550B87FF35D00024A0E640EA90018058D3
:1045C0005695979528F4805C660F771F881F20F01A
:1045D00026173707480730F4621B730B840B20291A
:1045E00031294A2BA69517940794202531254A276F
:1045F00058F7660F771F881F20F0261737074807E0
:1046000030F4620B730B840B200D311D411DA095FE
:1046100081F7B901842F9158880F96958795089551
:1046200091505040660F771F881FD2F708959F93CF
:104630008F937F936F93FF93EF939B01AC0125DFE3
:10464000EF91FF9105D02F913F914F915F911DCF39
:10465000DF93CF931F930F93FF92EF92DF927B0133
:104660008C01689405C0DA2EEF011BDFFE01E8948F
:10467000A5912591359145915591AEF3EF01BDDCA2
:10468000FE019701A801DA9479F7DF90EF90FF908F
:104690000F911F91CF91DF91089597FB092E072667
:1046A0000AD077FD04D043D006D000201AF47095CC
:1046B00061957F4F0895F6F7909581959F4F0895E6
:1046C0002F923F924F925F926F927F928F929F9222
:1046D000AF92BF92CF92DF92EF92FF920F931F9310
:1046E000CF93DF93CDB7DEB7CA1BDB0B0FB6F894C1
:1046F000DEBF0FBECDBF09942A88398848885F8401
:104700006E847D848C849B84AA84B984C884DF8071
:10471000EE80FD800C811B81AA81B981CE0FD11D55
:104720000FB6F894DEBF0FBECDBFED010895AA1BF2
:10473000BB1B51E107C0AA1FBB1FA617B70710F08C
:10474000A61BB70B881F991F5A95A9F780959095BE
:10475000BC01CD010895A0E0B0E0E1EBF3E20C94E0
:104760006823EC01A880B980CA80DB80A114B10461
:10477000C104D10441F484E2A82E89EDB82E8BE562
:10478000C82E87E0D82EC601B5012DE133EF41E0F8
:1047900050E00E94C72527EA31E440E050E00E9443
:1047A000A8257B018C01C601B5012DE133EF41E065
:1047B00050E00E94C725CA01B9012CEE34EF4FEF3B
:1047C0005FEF0E94A8256E0D7F1D801F911F97FF30
:1047D00004C06150704080409048688379838A8328
:1047E0009B839B013F77C901CDB7DEB7EAE00C940C
:1047F00084230E94AB23089585E293E00E94AB23BB
:104800000895A0E0B0E08093250390932603A09341
:104810002703B09328030895283008F027E03327B2
:10482000DA01990F311D87FD9160009661057105D0
:1048300039F432602E5F3D9330E32A95E1F7089515
:104840009F3F30F080387105610509F03C5F3C5FA7
:104850003D93913008F08068911DDF93CF931F93B3
:104860000F93FF92EF92192F987F9695E92F9695C7
:104870009695E90FFF27E95AFB4F99273327EE2436
:10488000FF24A701E70105900894079428F4360F48
:10489000E71EF81E491F511D660F771F881F991FBD
:1048A0000694A1F70590079428F4E70EF81E491F17
:1048B000561FC11D770F881F991F661F0694A1F709
:1048C0000590079428F4F80E491F561FC71FD11DE5
:1048D000880F991F661F771F0694A1F7059007940C
:1048E00020F4490F561FC71FD81F990F661F771F47
:1048F000881F0694A9F784911095177041F0D695FA
:10490000C79557954795F794E7941A95C1F7EDEF3A
:10491000F3E0689415901591359165919591059006
:104920007FE27395E118F10A430B560BC90BD009CE
:10493000C0F7E10CF11E431F561FC91FD01D7EF4A6
:10494000703311F48A95E6CFE894015030F0080FE7
:104950000AF40027021708F4202F2395022F7A3338
:1049600028F079E37D932A95E9F710C07D932A9585
:1049700089F6069497956795379517951794E118DA
:10498000F10A430B560BC90BD00998F023957E9181
:1049900073957A3308F070E37C932013B8F77E9117
:1049A00070617D9330F0839571E37D9370E32A9578
:1049B000E1F71124EF90FF900F911F91CF91DF91BC
:1049C000992787FD90950895FC01059061507040EE
:1049D0000110D8F7809590958E0F9F1F0895FC01C8
:1049E0006150704001900110D8F7809590958E0F1E
:1049F0009F1F08950F931F93CF93DF938C01EB01BB
:104A00008B8181FF1BC082FF0DC02E813F818C8175
:104A10009D812817390764F4E881F9810193F983AE
:104A2000E88306C0E885F985802F0995892B31F444
:104A30008E819F8101969F838E8302C00FEF1FEFAF
:104A4000C801DF91CF911F910F910895AEE0B0E0C2
:104A5000ECE2F5E20C946E230D891E8986E08C83CE
:104A60001A8309838FEF9FE79E838D839E01275EC4
:104A70003F4FCE0101966F89788DA9010E942F19B1
:104A80002F813885020F131FF80110822E96E4E063
:104A90000C948A23FA01AA27283051F1203181F1A0
:104AA000E8946F936E7F6E5F7F4F8F4F9F4FAF4F36
:104AB000B1E03ED0B4E03CD0670F781F891F9A1F49
:104AC000A11D680F791F8A1F911DA11D6A0F711DFD
:104AD000811D911DA11D20D009F468943F912AE009
:104AE000269F11243019305D3193DEF6CF010895F1
:104AF000462F4770405D4193B3E00FD0C9F7F6CF22
:104B0000462F4F70405D4A3318F0495D31FD4052E9
:104B1000419302D0A9F7EACFB4E0A695979587957F
:104B200077956795BA95C9F700976105710508955E
:104B30009B01AC010A2E069457954795379527950A
:104B4000BA95C9F7620F731F841F951FA01D0895A2
:104B5000629FD001739FF001829FE00DF11D649F61
:104B6000E00DF11D929FF00D839FF00D749FF00DED
:104B7000659FF00D9927729FB00DE11DF91F639F8E
:104B8000B00DE11DF91FBD01CF011124089597FB60
:104B9000092E05260ED057FD04D014D00AD0001CD3
:104BA00038F450954095309521953F4F4F4F5F4FCA
:104BB0000895F6F790958095709561957F4F8F4F8A
:104BC0009F4F0895A1E21A2EAA1BBB1BFD010DC029
:104BD000AA1FBB1FEE1FFF1FA217B307E407F507AD
:104BE00020F0A21BB30BE40BF50B661F771F881F89
:104BF000991F1A9469F760957095809590959B011F
:0C4C0000AC01BD01CF010895F894FFCF76
:104C0C005B444542554720402530362E3366200004
:104C1C0047414D45004F5645522100507265737304
:104C2C0020616E7920627574746F6E00746F2070E1
:104C3C006C617920616761696E2E2E2E00416C6962
:104C4C00656E20416476616E6365004D61726975B5
:104C5C007320496D696E67656E006E393838343073
:104C6C00373600746F20636F6E74696E7565004C17
:104C7C003A256400533A256400256425643A25647A
:104C8C00256400256400504C41594552204B494C39
:104C9C004C454420544845204D4F544845525348A8
:104CAC004950004D4F5448455253484950204B49A8
:104CBC004C4C45442054484520504C4159455200D9
:104CCC0054484520504C41594552204B494C4C4579
:104CDC00442054484520414C49454E00414C4945DF
:104CEC004E204B494C4C45442054484520504C4197
:104CFC00594552002028782C79292025642C2564CC
:104D0C000048656164696E673A204C6566740048BA
:104D1C00656164696E673A20557000486561646925
:104D2C006E673A2052696768740048656164696E01
:104D3C00673A20446F776E0057616974696E67201B
:104D4C00666F72200020636F6E6E656374696F6EA0
:104D5C000057656C636F6D6520746F20416C6965DD
:104D6C006E20416476616E63652064656275676769
:104D7C00696E6700436F6E6E656374696F6E206257
:104D8C0065747765656E207465656E737920616EE8
:104D9C0064205043206973206E6F772061637469BF
:104DAC00766500436F6E6E656374696F6E00657334
:104DBC007461626C697368656400506C617920770A
:104DCC00697468006B6579626F6172643A2077610F
:104DDC00736400686F6C642073706163650001011B
:104DEC00010001000A0070888870000000000000BB
:104DFC000000000000000000000000000000008027
:104E0C00808080F0000000C0C088A8F8A888FFC08F
:104E1C007F00410041004100410041007F0000E162
:0A4E2C000000000008010000000073
:00000001FF
